:020000040800F2
:100000000020002061100008110B0008130B0008ED
:1000100000000000000000000000000000000000E0
:10002000000000000000000000000000150B0008A8
:100030000000000000000000170B0008190B00086A
:10004000B1100008B1100008B1100008B11000088C
:10005000B1100008B1100008B1100008B11000087C
:10006000B1100008B1100008B1100008B11000086C
:10007000B1100008B1100008B1100008B11000085C
:10008000B1100008B110000800000000B110000815
:10009000B1100008D1080008B1100008B110000824
:1000A000B1100008B1100008B1100008B11000082C
:1000B000B110000800000000B110000800000000AE
:1000C00010B5064C2378002B07D1054B002B02D02E
:1000D000044800E000BF0123237010BD1000002081
:1000E000000000000C110008044B10B5002B03D0D9
:1000F0000349044800E000BF10BDC04600000000F6
:10010000140000200C110008002243088B4274D315
:1001100003098B425FD3030A8B4244D3030B8B4208
:1001200028D3030C8B420DD3FF22090212BA030C11
:100130008B4202D31212090265D0030B8B4219D3F2
:1001400000E0090AC30B8B4201D3CB03C01A524112
:10015000830B8B4201D38B03C01A5241430B8B425A
:1001600001D34B03C01A5241030B8B4201D30B0343
:10017000C01A5241C30A8B4201D3CB02C01A52416A
:10018000830A8B4201D38B02C01A5241430A8B422D
:1001900001D34B02C01A5241030A8B4201D30B0216
:1001A000C01A5241CDD2C3098B4201D3CB01C01A30
:1001B000524183098B4201D38B01C01A524143093A
:1001C0008B4201D34B01C01A524103098B4201D328
:1001D0000B01C01A5241C3088B4201D3CB00C01A95
:1001E000524183088B4201D38B00C01A524143080D
:1001F0008B4201D34B00C01A5241411A00D2014632
:10020000524110467047FFE701B5002000F0F0F8BA
:1002100002BDC0460029F7D076E7704703460B437E
:100220007FD4002243088B4274D303098B425FD3EF
:10023000030A8B4244D3030B8B4228D3030C8B421B
:100240000DD3FF22090212BA030C8B4202D3121201
:10025000090265D0030B8B4219D300E0090AC30BD6
:100260008B4201D3CB03C01A5241830B8B4201D383
:100270008B03C01A5241430B8B4201D34B03C01A6C
:100280005241030B8B4201D30B03C01A5241C30AE4
:100290008B4201D3CB02C01A5241830A8B4201D355
:1002A0008B02C01A5241430A8B4201D34B02C01A3F
:1002B0005241030A8B4201D30B02C01A5241CDD2E4
:1002C000C3098B4201D3CB01C01A524183098B422F
:1002D00001D38B01C01A524143098B4201D34B0118
:1002E000C01A524103098B4201D30B01C01A52417B
:1002F000C3088B4201D3CB00C01A524183088B4202
:1003000001D38B00C01A524143088B4201D34B00EA
:10031000C01A5241411A00D201465241104670475C
:100320005DE0CA0F00D04942031000D34042534061
:1003300000229C4603098B422DD3030A8B4212D321
:10034000FC22890112BA030A8B420CD38901921153
:100350008B4208D3890192118B4204D389013AD090
:10036000921100E08909C3098B4201D3CB01C01A65
:10037000524183098B4201D38B01C01A5241430978
:100380008B4201D34B01C01A524103098B4201D366
:100390000B01C01A5241C3088B4201D3CB00C01AD3
:1003A000524183088B4201D38B00C01A5241D9D2EB
:1003B00043088B4201D34B00C01A5241411A00D26C
:1003C0000146634652415B10104601D34042002B68
:1003D00000D54942704763465B1000D3404201B5E7
:1003E000002000F005F802BD0029F8D016E770479C
:1003F0007047C046F0B5DE4657464E464546E0B526
:100400008BB01822002104A800F053FE5D4B5A69FE
:100410008021C9030A435A615A690A400392039A28
:100420005A69802189020A435A615A690A40029234
:10043000029A5A698021C9020A435A615B690B40DA
:100440000193019B504D0126AE6202239A46AB6296
:1004500002339946AB6204339846AB6208339B463D
:10046000AB621033AB624022AA628021A96204967B
:1004700008969027FF0504A80100380000F051FB02
:100480005046049000240594089604A80100380002
:1004900000F047FB484604900594089604A8010024
:1004A000380000F03EFB404604900594089604A8EE
:1004B0000100380000F035FB049605960694079479
:1004C000089404A80100280000F02BFB504604907B
:1004D000059606940794089404A80100280000F0EB
:1004E00020FB48460490059606940794089404A8B7
:1004F0000100280000F015FB404604900596069484
:100500000794089404A80100280000F00AFB58464C
:100510000490059606940794089404A80100280006
:1005200000F0FFFA2023049305960694079408949C
:1005300004AB1900280000F0F4FA4022049205965A
:1005400006940794089404AB1900280000F0E9FA17
:1005500080210491059606940794089404A9280024
:1005600000F0DFFA80239B0004930594089404A90B
:10057000280000F0D6FA0BB0F0BCBB46B246A94644
:10058000A046F0BD001002400004004882B04300C5
:1005900018180023019304E0C046C046019B0133B4
:1005A0000193019B8342F7D302B0704770B51420CA
:1005B000FFF7ECFF0A4CA36980252D022B43A361B2
:1005C0001420FFF7E3FFA26980231B061343A361F6
:1005D0001420FFF7DBFFA3691D43A56170BDC04672
:1005E0000008004810B50400454A91698023DB01EA
:1005F0000B43936143B2002B46DB9022D2059169F5
:1006000080231B060B439361630645D59022D205D8
:10061000916980235B010B439361A30644D5394A5A
:10062000916980239B000B439361E30643D5354AD0
:10063000916980235B000B439361FFF7B7FF2307AA
:1006400040D59022D205916980231B020B43936110
:1006500063073FD59022D205916980235B010B434C
:100660009361A3073ED5274A916980239B000B43E2
:100670009361E4073DD5234A916980235B000B43D6
:100680009361FFF793FF10BD9022D20591698023FB
:100690001B020B439361B7E79022D2059169802337
:1006A0005B050B439361B8E7164A916980239B046D
:1006B0000B439361B9E7134A916980235B040B43B1
:1006C0009361BAE79022D205916980231B060B4300
:1006D0009361BDE79022D205916980235B050B43AE
:1006E0009361BEE7074A916980239B040B439361A2
:1006F000BFE7044A916980235B040B439361C0E721
:10070000000800480004004870B50500002403E01C
:10071000FFF768FF0134E4B2285D0028F8D170BD0E
:1007200010B50400474A91698023DB050B439361B0
:1007300043B2002B49DB9022D205916980231B062E
:100740000B439361630648D59022D20591698023BB
:100750005B010B439361A30647D53B4A9169802314
:100760009B000B439361E30646D5374A916980238A
:100770005B000B439361FFF719FF230743D59022DA
:10078000D205916980231B020B439361630742D515
:100790009022D205916980235B010B439361A307EB
:1007A00041D5294A916980239B000B439361E4075B
:1007B00040D5254A916980235B000B439361FFF785
:1007C000F5FE2248FFF7E2FE10BD9022D2059169A6
:1007D00080231B020B439361B4E79022D2059169F9
:1007E00080235B050B439361B5E7174A916980232A
:1007F0009B040B439361B6E7134A916980235B0422
:100800000B439361B7E79022D205916980231B06C1
:100810000B439361BAE79022D205916980235B056F
:100820000B439361BBE7084A916980239B040B4308
:100830009361BCE7044A916980235B040B43936195
:10084000BDE7C0460008004800040048B80B00009F
:1008500010B51B4B5969802292020A435A615969AB
:100860008022D2020A435A615969802212030A4344
:100870005A619022D20511688223DB050B43136075
:10088000104A1168A023DB020B4313600E4A116863
:10089000A023DB050B4313600C48FFF777FE3320E2
:1008A000FFF73EFF3220FFF73BFF0C20FFF738FF3A
:1008B0002820FFF735FF0120FFF732FF10BDC046AB
:1008C0000010024000040048000800483075000095
:1008D000F8B5294F380000F062FA284D2B78284CE3
:1008E000DB001A5D274E0121300000F016FA2B784C
:1008F000DB00E3185A780221300000F00EFA2B7862
:10090000DB00E3189A780421300000F006FA2B7817
:10091000DB00E318DA780821300000F0FEF92B78CC
:10092000DB00E3181A791021300000F0F6F92B787B
:10093000DB00E3185A792021300000F0EEF92B7823
:10094000DB00E3189A794021300000F0E6F92B78BB
:10095000DB00E418E2798021300000F0DEF928782D
:1009600001300921FFF740FD29703A68064B1B68EA
:10097000013BD362FB60F8BD300000202C0000205A
:1009800034110008000400480000002072B6FEE7A1
:1009900010B50C480C4B03600C4B43600023836084
:1009A0000B4AC260036143618033836100F0F6FA51
:1009B000002804D1074B802292031A6010BDFFF774
:1009C000E5FFC04630000020004401403F1F00000A
:1009D000E703000000E100E010B51A4A13680121A6
:1009E0008B431360174B1B68DB07FBD4164A136855
:1009F00001210B431360144B1B689B07FBD5124B63
:100A00001A68F8218A4378390A431A605A687031A3
:100A10008A435A605A680D490A405A605A6803214D
:100A20008A435A60084B5B680C221A42FAD1084884
:100A300000F010FB032000F0D1F8002800D110BD19
:100A4000FFF7A4FF0020024000100240FFF8FFFF64
:100A500000127A0010B500F0E9F8FFF7BDFFFFF7CC
:100A6000C9FCFFF795FF244800F05EF9FFF7F0FEA0
:100A70000120FFF755FE2148FFF746FE02E0204B1C
:100A800000221A7090200121C00500F03FF90028D3
:100A900009D11C4BFA2252001A60174B1968F42234
:100AA000FF32CA62DA6090200221C00500F02EF900
:100AB000002808D1134BFA22D2001A600E4B196895
:100AC000114ACA62DA6090200421C00500F01EF9C4
:100AD000002808D10B4BFA2292001A60064B1968C5
:100AE0000A4ACA62DA6090200821C00500F00EF9B7
:100AF0000028C7D1C3E7C0463000002024110008F9
:100B00002C00002000000020CF070000E7030000B9
:100B1000FEE7FEE77047704710B500F097F810BD8C
:100B20007047F0B5002216E00B699C46C4682B00A4
:100B30006B435E00F618F743B44366465E433443A6
:100B4000C4604C68022C26D04D6804683C406B435E
:100B50002343036001320C682300D3403BD00123C0
:100B6000934025001D401C42F4D04B68013B012BF3
:100B7000DAD88F6883682C006C4366003619B3435B
:100B80007C43234383600E68CC684368B34374435B
:100B900023434360C8E7FF2D0DD84C69A446066A7D
:100BA0001C006C436C4325012D1BAE4365466C4312
:100BB00034430462C8E74C69A446466A2D0A2C00F7
:100BC0006C436C436C4325012D1BAE4365466C435F
:100BD00034434462B8E70020F0BD000010B50400C3
:100BE0000F4B1978FA208000FFF78EFA01000D4BA9
:100BF0001868FFF789FA00F085F800280DD1032C5A
:100C000001D901200AE0013000222100404200F019
:100C100075F8054B1C60002000E0012010BDC046A7
:100C200008000020040000200C00002010B5064A37
:100C3000136810210B4313600320FFF7CFFF00F070
:100C4000DBF9002010BDC04600200240034A1168B5
:100C5000034B1B785B1813607047C0467800002078
:100C60000800002070B5002811DB8308134DC03345
:100C70009B005C5903221040C000FC3216008640E5
:100C8000B44389010A40824022435A5170BD0F2368
:100C90000340083B9B0806339B00094A9446634483
:100CA0005C6803221040C000FC3215008540AC4354
:100CB00089010A40824022435A60E7E700E100E0F0
:100CC00000ED00E0013880235B0498420FD2094A0E
:100CD00050600948036A1B021B0AC02109060B4326
:100CE00003620023936007331360002070470120E4
:100CF000FCE7C04610E000E000ED00E010B5FFF7B3
:100D0000B1FF10BD10B5FFF7DDFF10BD03690B4249
:100D100001D0012070470020FCE7002A01D081614A
:100D200070478162FCE700003D23C35C012B26D1A4
:100D30003C330222C2540268D36801210B43D360C2
:100D40000368114A93420FD08022D20593420BD000
:100D50000E4A934208D00E4A934205D01A680121E8
:100D60000A431A6000200BE0996807220A40062A0D
:100D700007D01A6801210A431A60002000E0012010
:100D800070470020FCE7C046002C014000040040F2
:100D9000004001407047704770477047704710B57A
:100DA0000400026813699B070FD5D3689B070CD515
:100DB00003235B4213610433037703689B699B073A
:100DC00063D0FFF7E9FF00232377226813695B07ED
:100DD00012D5D3685B070FD505235B421361073338
:100DE000237723689A69C0239B001A4253D02000BE
:100DF000FFF7D2FF00232377226813691B0710D562
:100E0000D3681B070DD509235B4213610D3323778C
:100E10002368DB699B0745D02000FFF7BDFF002357
:100E2000237722681369DB0612D5D368DB060FD55A
:100E300011235B421361193323772368DA69C023D6
:100E40009B001A4235D02000FFF7A6FF002323772E
:100E500022681369DB0702D5D368DB0730D4226828
:100E600013691B0602D5D3681B0630D422681369A8
:100E70005B0602D5D3685B0630D4226813699B06F3
:100E800002D5D3689B0630D410BDFFF784FF200045
:100E9000FFF783FF97E72000FFF77DFF2000FFF7B4
:100EA0007CFFA7E72000FFF776FF2000FFF775FF24
:100EB000B5E72000FFF76FFF2000FFF76EFFC5E7E3
:100EC00002235B4213612000FFF764FFC7E7812321
:100ED0005B421361200000F08EF8C7E741235B42BC
:100EE00013612000FFF75AFFC7E721235B4213611C
:100EF000200000F07FF8C7E70368214A904206D03F
:100F00008022D205904202D01E4A904203D1702224
:100F100093434A6813431A4A904212D08022D20562
:100F200090420ED0174A90420BD0174A904208D0F8
:100F3000164A904205D0164A904202D0154A904275
:100F400003D1154A1A40CB681343802293434A6960
:100F5000134303608B68C3620B688362084B98423B
:100F600008D00A4B984205D0094B984202D0094B51
:100F7000984201D10B690363012343617047C04666
:100F8000002C0140000400400020004000400140CF
:100F90000044014000480140FFFCFFFF70B5041E03
:100FA00026D03D23C35C002B1CD03D250223635576
:100FB000210001C9FFF7A0FF01234622A354083AEC
:100FC000A3540132A3540132A3540132A354013279
:100FD000A3540132A3540132A3540132A3546355E4
:100FE000002070BD3C330022C25400F01DF8DCE745
:100FF0000120F6E77047704782B00A4B99690122D9
:101000001143996199690A400092009ADA69802136
:1010100049050A43DA61DB690B400193019B02B089
:101020007047C0460010024082B00268074B9A42E7
:1010300001D002B07047064B9A69802189020A43A9
:101040009A619B690B400193019BF2E700440140C8
:1010500000100240014B18607047C0460400002099
:101060000D488546FFF75CFD0C480D490D4A0023ED
:1010700002E0D458C4500433C4188C42F9D30A4A4D
:101080000A4C002301E013600432A242FBD300F0BB
:1010900019F8FFF7DFFCFEE7002000200000002029
:1010A0001000002084110008100000207C000020A7
:1010B000FEE703008218934200D170471970013394
:1010C000F9E7000070B500260C4C0D4D641BA41010
:1010D000A64209D1002600F019F80A4C0A4D641BFB
:1010E000A410A64205D170BDB300EB589847013655
:1010F000EEE7B300EB5898470136F2E77C110008A1
:101100007C110008801100087C110008F8B5C04669
:10111000F8BC08BC9E467047F8B5C046F8BC08BC91
:041120009E46704730
:101124004545453330393553204C61622031000048
:1011340001010100010000010101000100000100A2
:101144000100010000010000000100000100000096
:101154000100000100000000000001000000000088
:101164000001000000000000010000000000000079
:08117400000000000000000073
:04117C00E90000087E
:04118000C1000008A2
:10118400E803000000127A000100000004000000DF
:04000005080010617E
:00000001FF
