:020000040800F2
:100000000020002081010008570100085901000864
:1000100000000000000000000000000000000000E0
:100020000000000000000000000000005B0100086C
:1000300000000000000000005D0100085F010008F2
:10004000D1010008D1010008D1010008D101000848
:10005000D1010008D1010008D1010008D101000838
:10006000D1010008D1010008D1010008D101000828
:10007000D1010008D1010008D1010008D101000818
:10008000D1010008D101000800000000D1010008E2
:10009000D1010008D1010008D1010008D1010008F8
:1000A000D1010008D1010008D1010008D1010008E8
:1000B000D101000800000000D1010008000000008C
:1000C00010B5064C2378002B07D1054B002B02D02E
:1000D000044800E000BF0123237010BD040000208D
:1000E000000000001C020008044B10B5002B03D0D8
:1000F0000349044800E000BF10BDC04600000000F6
:10010000080000201C020008002000201101000847
:1001100007484169074A1143416107485521C160B9
:100120000649074A0A600022FF224A614A61FDE748
:1001300000100240000006000000004800040048D3
:1001400055550000000000000000000010B5FFF74A
:10015000DFFF002010BDFEE7FEE77047704710B5D7
:1001600000F002F810BD7047034A1168034B1B787A
:100170005B1813607047C04620000020000000207C
:100180000D488546FFF7EFFF0C480D490D4A002347
:1001900002E0D458C4500433C4188C42F9D30A4A3C
:1001A0000A4C002301E013600432A242FBD300F0AA
:1001B00011F8FFF7CBFFFEE7002000200000002031
:1001C000040000203C02000804000020240000205D
:1001D000FEE7000070B500260C4C0D4D641BA4100A
:1001E000A64209D1002600F019F80A4C0A4D641BFA
:1001F000A410A64205D170BDB300EB589847013654
:10020000EEE7B300EB5898470136F2E734020008F6
:10021000340200083802000834020008F8B5C0466D
:10022000F8BC08BC9E467047F8B5C046F8BC08BC90
:040230009E4670472F
:04023400E9000008D5
:04023800C1000008F9
:04023C0001000000BD
:04000005080001816D
:00000001FF
