:020000040800F2
:1000000000200020BD0100089301000895010008B0
:1000100000000000000000000000000000000000E0
:100020000000000000000000000000009701000830
:100030000000000000000000990100089B0100087A
:100040000D0200080D0200080D0200080D02000854
:100050000D0200080D0200080D0200080D02000844
:100060000D0200080D0200080D0200080D02000834
:100070000D0200080D0200080D0200080D02000824
:100080000D0200080D020008000000000D0200082B
:100090000D0200080D0200080D0200080D02000804
:1000A0000D0200080D0200080D0200080D020008F4
:1000B0000D020008000000000D0200080000000012
:1000C00010B5064C2378002B07D1054B002B02D02E
:1000D000044800E000BF0123237010BD040000208D
:1000E0000000000058020008044B10B5002B03D09C
:1000F0000349044800E000BF10BDC04600000000F6
:10010000080000205802000800200020110100080B
:1001100016484169164A1143416116485521C1608C
:100120001549164A0A600022124B1C690F252C4003
:1001300004252540002D01D1AA220BE008252540E9
:10014000002D07D001252540002D01D1023200E00D
:100150000132D2B24A6102252540002D01D1094E5B
:1001600000E0074E013EFDD1DEE7C0460010024030
:10017000000006000000004800040048555500003B
:1001800020A10700F043030010B5FFF7C1FF0020D6
:1001900010BDFEE7FEE77047704710B500F002F8AB
:1001A00010BD7047034A1168034B1B785B1813603E
:1001B0007047C04620000020000000200D48854602
:1001C000FFF7EFFF0C480D490D4A002302E0D45819
:1001D000C4500433C4188C42F9D30A4A0A4C002391
:1001E00001E013600432A242FBD300F011F8FFF7E4
:1001F000CBFFFEE7002000200000002004000020CC
:10020000780200080400002024000020FEE700001F
:1002100070B500260C4C0D4D641BA410A64209D1EC
:10022000002600F019F80A4C0A4D641BA410A642DF
:1002300005D170BDB300EB5898470136EEE7B30027
:10024000EB5898470136F2E7700200087002000888
:100250007402000870020008F8B5C046F8BC08BC7B
:100260009E467047F8B5C046F8BC08BC9E4670472D
:04027000E900000899
:04027400C1000008BD
:040278000100000081
:04000005080001BD31
:00000001FF
