:020000040800F2
:100000000020002075320008C11C0008C31C000835
:1000100000000000000000000000000000000000E0
:10002000000000000000000000000000C51C0008E7
:100030000000000000000000C71C0008C91C0008E8
:10004000C5320008C5320008C5320008C5320008B4
:10005000C532000809180008C5320008C53200087A
:10006000C5320008C5320008C5320008C532000894
:100070009D190008C5320008C5320008C5320008C5
:10008000C53200086518000800000000C5320008ED
:10009000C5320008D9180008C5320008C53200086A
:1000A000C5320008C5320008C5320008C532000854
:1000B000C532000800000000C53200080000000042
:1000C00010B5064C2378002B07D1054B002B02D02E
:1000D000044800E000BF0123237010BD1800002079
:1000E0000000000020330008044B10B5002B03D0A3
:1000F0000349044800E000BF10BDC04600000000F6
:100100001C00002020330008002243088B4274D3D7
:1001100003098B425FD3030A8B4244D3030B8B4208
:1001200028D3030C8B420DD3FF22090212BA030C11
:100130008B4202D31212090265D0030B8B4219D3F2
:1001400000E0090AC30B8B4201D3CB03C01A524112
:10015000830B8B4201D38B03C01A5241430B8B425A
:1001600001D34B03C01A5241030B8B4201D30B0343
:10017000C01A5241C30A8B4201D3CB02C01A52416A
:10018000830A8B4201D38B02C01A5241430A8B422D
:1001900001D34B02C01A5241030A8B4201D30B0216
:1001A000C01A5241CDD2C3098B4201D3CB01C01A30
:1001B000524183098B4201D38B01C01A524143093A
:1001C0008B4201D34B01C01A524103098B4201D328
:1001D0000B01C01A5241C3088B4201D3CB00C01A95
:1001E000524183088B4201D38B00C01A524143080D
:1001F0008B4201D34B00C01A5241411A00D2014632
:10020000524110467047FFE701B5002000F006F8A4
:1002100002BDC0460029F7D076E770477047C04658
:100220009E2110B5C905041C00F006FF002803D16B
:10023000201C00F0EFFA10BD9E21201CC90500F023
:1002400045F900F0E7FA80231B069C466044F2E77C
:10025000F0B54F464646D64643025B0A4500C0B558
:1002600099460F1C2D0EC60F002D00D188E0FF2DE2
:1002700000D18DE08022DB00D2041A430023914696
:1002800098469A467F3D7C027B00640A1B0EFF0F56
:10029000002B68D0FF2B21D08022E400D20414432D
:1002A00042467F3B5B1900215D1C0A2A2EDC7E4002
:1002B0004246022A23DC013A012A00D9BDE0022984
:1002C0006ED001292CD100200022C005F607104372
:1002D0003043E0BCBA46B146A846F0BD2B00FF3320
:1002E000002C65D003224146114332000135884677
:1002F0007A40FF350A2900DDD8E016000321404688
:1003000001228240A620C000024220D05346022B88
:1003100046D0032B00D1BBE051464C460129D2D038
:100320002B007F33002B70DD620704D00F222240A8
:10033000042A00D00434220103D5634B1C402B0057
:100340008033FE2B2CDCA201520AD8B2BDE79020EC
:100350008000024227D1B938FF3810426DD03E00EC
:10036000A1468A46D2E7002C41D1012342461A43D6
:1003700090462B00424601215D1C0A2A97DDC5E705
:10038000002B26D104239846033B00259A467AE7A2
:10039000002B18D108239846063BFF259A4672E7A2
:1003A000FF20002291E780220026FF20D2038CE765
:1003B00041460222013511438846FF350A29A5DC52
:1003C00002217E4074E70C239846093BFF259A469C
:1003D00059E7180000F03AFE4A46431F76259A4036
:1003E00000236D42914698469A462D1A4BE720000D
:1003F00000F02CFE4246431F9C402B1A763B002106
:100400005D1C0A2A00DC52E780E70122D31A1B2B6D
:1004100000DD58E79E352200AC40DA40631E9C4167
:100420002243530704D00F231340042B00D004327F
:10043000530137D50120002247E7210C4A46240406
:10044000240C2700100C1204120C44435743484359
:1004500051433A0C09195218944203D98021490298
:100460008C4660443F0411043F0CC9198C01671E7F
:10047000BC41120C890E12180C4392011443120154
:100480000ED5012362081C40144349E73E00A146F3
:1004900080224B46D2031A435202FF20520A14E72D
:1004A0001D003DE792010020520A0EE70F29EDD111
:1004B00080224B46D2031342EAD01442E8D13E00D8
:1004C000FF20224301E7C046FFFFFFF7F8B547468C
:1004D000CE464E0243024500720AC40F480080B562
:1004E00094465F0A2D0E9B09000EC90FB609FF281E
:1004F00024D0012251402A1A8C420FD0002A00DC5D
:100500006AE1002835D1002E00D1A2E0511E012A57
:1005100000D124E1FF2A21D00A002FE0002A00DCCC
:1005200067E100285ED0FF2D18D08021C9040E435A
:100530001B2A00DC76E02A00013332E02A00FF3A71
:100540009146002E42D08C4255D04A46002A00D116
:100550009CE0002D00D177E00C003300DB08002B7D
:1005600000D16EE08022D20313435B02FF205B0ABE
:1005700024E0FF2DF2D08021C9040E4301211B2A63
:1005800008DC31002020D140821A96403200501EF3
:10059000824111435B1A5A0160D407212A00194095
:1005A00057D00F211940042900D00433590150D5E8
:1005B000501CFE2A45D09B01C0B25B0AC0051843FF
:1005C000E4072043C0BCB946B046F8BD0122514003
:1005D0008C42BAD14A46002A10D0002D00D198E0B2
:1005E0000023BBE7002E34D0511E012A6ED0FF2A13
:1005F000B4D00A009CE7002A00D088E0FE206A1CE4
:10060000104200D092E0002D00D0A4E0002B00D1D9
:10061000CBE0002E00D0CAE00022DB085B025B0AC0
:10062000D0B2CBE731002020D140821A9640320070
:10063000501E82410A439B185A01AED56A1CFE2DFA
:100640004AD1FF200023B9E7FF22002B4BD10C0039
:100650003300DB08FF2A00D181E7DFE79F01BF09F4
:10066000380000F0F3FC05388740854221DC3B0070
:100670002021421B0132D3408A1A97407A1E9741AB
:1006800000223B43590700D08BE78FE7FE206A1C0E
:10069000104212D1002D52D1002B7CD0002EBBD0A5
:1006A0009A1B500100D48BE001240022F31A0C4065
:1006B000E8E7564B2A1A3B40E4E79F1B7A0146D4F1
:1006C000002FCDD100240020002377E79B190125BE
:1006D0000132590100D460E701214D4819405B08FF
:1006E00003400B43CEE7571E012A5AD00C00FF2AC5
:1006F00033D001221B2F07DC2021C91B1A008B409D
:10070000FA40591E8B411A430500B31A43E7002DE6
:1007100023D1FF22002B9BD0511E012AD6D0FF2AC5
:100720001BD01B292CDD0200731C3AE7FF2A88D05E
:100730009B195B08590700D033E7DB086EE7002BF5
:1007400010D1002E43D0012433000C4006E70124D1
:10075000F71A0C4084E7002B04D13300FEE6012594
:100760009B1B18E7002E00D1F8E68022D2039742A7
:1007700004D3944502D2012433000C40DB08F1E697
:100780001A002025CA40691A8B40591E8B41134319
:1007900005009B1950E7002E94D0012433000C4033
:1007A0003AE70C000125F31AF5E6330034E79B190C
:1007B00000225901C1D5154A1340DB0801222DE75B
:1007C000002A00D17EE713000022DB0826E7802301
:1007D0000024FF20DB03F1E6002A00D156E7471B87
:1007E0003A00002D00D130E78022D2040C001343E0
:1007F0007FE7002A00D101E7411B002D01D10A004B
:1008000088E78022D20413438BE7C046FFFFFFFB3B
:10081000FFFFFF7D41024200C30F490A0020120E74
:100820007E2A03DD9D2A02DD094A98187047802040
:1008300000040143952A07DC9620821AD1404842E1
:10084000002BF3D10800F1E7963A9140F7E7C04654
:10085000FFFFFF7FF0B5DE46454657464E46E0B502
:1008600087B0009201930B031B0B9B46CA0F4B00F2
:10087000040080465B0D029200D16AE1D44A9342A3
:1008800000D18CE15946420FC9000A438021090476
:100890001143C2009046CF4A894692469A440023AB
:1008A00000240393009E019F3B031B0B9B467B0090
:1008B00030005B0DFD0F002B00D128E1C44A9342AC
:1008C00000D177E15946720FC9000A43802109041B
:1008D00011438B46BF49F2008C4651466344CB1A04
:1008E0009A460023029E6E400F2C27D8BA49A400D6
:1008F00009598F46CB464246029E039B022B16D0D7
:10090000032B00D1A6E2012B00D0DFE00022002360
:10091000002490461B052343F60733434046190045
:1009200007B0F0BCBB46B246A946A046F0BD0022C7
:1009300000249046A64BEDE72E00DFE7CB4500D222
:10094000D4E100D1CFE101235B429C4644464846B6
:100950000027E2445B46150E1B021D43190C2B04B5
:10096000120200951D0C914602910395FFF752FC6F
:1009700002006A430B04210C804619438A4209D9BC
:10098000009D0123AC465B4261449C46E0448D429D
:1009900000D8FBE1881A0299FFF73CFC039A240473
:1009A00042430904240C03000C43A24206D90099D7
:1009B000013B8C466444A14200D8E1E1A01A4246C2
:1009C00012041A4393464B4659461B0C1D000493D0
:1009D0000B0449460904090C0C001B0C5C43120C67
:1009E0006B43884651436A43250CAC465B1863440D
:1009F000994203D9802149028C466244190C24048F
:100A00001B04240C8A181C19904202D316D1A74249
:100A100014D25B46009D013B4F4405934F459B41DB
:100A2000AC465B426344C018854200D3A1E18242D8
:100A300000D9F6E100D1F1E1059B9B463C1BA742A2
:100A4000BF41009D801A7F42C01B854200D1D0E18A
:100A50000299FFF7DFFB039A0B044243210C0700C6
:100A600019438A4200D978E1881A0299FFF7D2FB2C
:100A7000039A240442430904240C03000C43A242B9
:100A800000D95DE14146A41A3A041A43049D1304B7
:100A90001B0C594347466B439C46100C47430B0CB9
:100AA000BC44634468439F4203D980256D02AC4631
:100AB00060441F0C09041B04090C3F185B18BC425E
:100AC00000D202E100D1FDE001231A43434B53441D
:100AD000002B00DCAEE0510700D098E15946C90177
:100AE00006D559463E4B194080238B46DB005344C4
:100AF0003C498B4200DD1AE75946D20849071143A9
:100B00005A465B0554028846240B5B0D02E75A46A1
:100B1000009B1A4300D17EE05B46002B00D100E130
:100B2000584600F093FA020003000B3A1D27009E7E
:100B3000BA1A19005846D640083988403200024394
:100B40009346009A8A40284953448A469A4400238F
:100B5000C8E65B460343994656D05B46002B00D15E
:100B6000CDE0584600F072FA0B235B429C4602002F
:100B7000844466461D239B1B260011005846DE4018
:100B80000839884033000343994623008B40984638
:100B9000164B00249B1A9A460023039382E65A467A
:100BA000024391462AD100229A4602239046082405
:100BB000039377E65A46009B1A430D4B9C46E2444A
:100BC000002A17D102231C4300239B46023389E6E7
:100BD000FF07000001FCFFFF38330008FF0300009F
:100BE000FFFFFFFEFE070000F30300000DFCFFFF08
:100BF00001F8FFFF032332001C4373E69A460323E8
:100C0000D9460C2403934DE6002398469A460133B7
:100C10000424039346E601231C4300239B4601332F
:100C200060E60023802498460026924B240371E658
:100C3000012252420121C91A382900DD66E61F2926
:100C400000DCABE01F204042C31A5846D8400300E6
:100C5000202904D058468849514488400243511EF7
:100C60008A411A43072319000024114013420CD073
:100C70000F231340042B00D1F9E0111D91429B4139
:100C80000A005B4259075B021C0BD2080A439046DC
:100C900000233FE680244B462403234209D05B46D1
:100CA000234206D11C4324032E009046714B240B93
:100CB00030E680244B4624031C432403029E6D4BE4
:100CC000240B27E6002B00D100E70098511E844634
:100CD0006444844200D284E0BC4200D2AEE000D141
:100CE000C1E00A00F0E6424500D92CE64B46DC079D
:100CF000580843465B081C434346DF072AE600F0DA
:100D0000A5F915239C4684440200634620321C2B1F
:100D100000DC2EE7230008388340994600239846DC
:100D200036E700F093F902000300153220331C2A45
:100D300000DCFBE600990838814000228B4602E780
:100D40000099013B8C466444A14200D99AE6A24234
:100D500000D897E6831E644494E6AC466144013FA4
:100D60008D4200D980E68A4200D87DE6871E614424
:100D70007AE6854200D05FE6B94500D95CE656E6E2
:100D8000A24200D81AE6831E644417E68A4200D8BD
:100D900000E6AC46831E98466144FBE537481400E4
:100DA000504482405B4617008340CC407A1E9741F6
:100DB00023433B431A005B46CB40510709D00F2128
:100DC0001140042905D0111D9142924152429B18B5
:100DD0000A00190200D455E700220123002490469E
:100DE00098E50A00BC4200D06EE64B4500D06BE6A9
:100DF0006CE6234B234A5344924500DA18E701215D
:100E000049420A1D8A42894149428B4466E60F21C4
:100E10001140042900D161E61100F2E7BC4200D87C
:100E20000AE602235B429C4600994F444F459B4192
:100E3000E3448C465B426344C018FFE54946009D8D
:100E4000480048458941AC46494261448146023ADE
:100E50006418C7E780245B4624031C4324039046A0
:100E6000044B240B56E59945E8D30A00BDE700235F
:100E700008E7C046FF0700003E0400001E04000013
:100E8000FF03000002FCFFFF10B5041E10D000F0AD
:100E9000DDF80E4B1B1A5B055B0D0A280FDC0B22DD
:100EA0002100121AD14015300A038440120B01E0D0
:100EB000002300221B0513432000190010BD22004F
:100EC0000B38824012030024120BF3E71E040000CB
:100ED000F0B54B000F035B0D3B4C450F83B07F0A11
:100EE0005E1C2F4300900191CA0FC50026420BD013
:100EF00036495C18FE2C13DDFF200023C005184383
:100F0000D207104303B0F0BD002B02D10020002314
:100F1000F4E73D43F0D08023DB03FF203B43EDE7C4
:100F2000002C14DD009BFF009B01581E8341690FBC
:100F30003B430B43590741D00F211940042928D0C6
:100F40000433590125D501340023E0B2D6E721004E
:100F50001731DBDB80211E2009043943001B1F28C9
:100F60001BDD02267642341B0E00E64034002028AA
:100F700004D017488446634499400D432B00591E02
:100F80008B412343590715D00F2100241940042910
:100F900017D19B015B0AE0B2B0E70E4C1C192B0085
:100FA000A540C340A140681E854129430B4300244E
:100FB0005907C1D19B0100205B0A9FE7DB08E0B223
:100FC0009CE70433E5E7C046FE07000080FCFFFF16
:100FD000A2FCFFFF82FCFFFF844608006146FFE79A
:100FE0001FB500F0C9F8002801D40021C8421FBD78
:100FF00010B500F049F84042013010BD10B500F0C6
:10100000BBF8002801DB002010BD012010BDC04648
:1010100010B500F0B1F8002801DD002010BD01205E
:1010200010BDC04610B500F057F8002801DC0020C4
:1010300010BD012010BDC04610B500F04DF80028CD
:1010400001DA002010BD012010BDC0461C21012383
:101050001B04984201D3000C10391B0A984201D39B
:10106000000A08391B09984201D30009043902A279
:10107000105C40187047C0460403020201010101E0
:10108000000000000000000070B542004E024C005D
:1010900045026D0A120EC30F760A240EC90FFF2AED
:1010A00010D0FF2C0CD00120A2420AD1B54208D1A9
:1010B0008B420FD0002A04D12800431E984100E043
:1010C000012070BD0120FF2CFBD13543F9D14B40ED
:1010D0001800F6E70020F4E730B5420044024D0264
:1010E000C30F4800640A120E6D0A000EC90FFF2AD2
:1010F00019D0FF280BD0002A1ED100280BD1002DBB
:1011000027D0002C34D100292FD0080030BD002D6D
:1011100028D1002A01D1002CF5D08B4207D1002B19
:1011200023D01800F2E7002C1CD1FF2814D0581E41
:10113000022318400138E9E70028F8D08B42F6D1A5
:101140008242F4DCEBDBAC42F1D80020AC42DDD2D1
:10115000E5E7002CDAD0EAE7002D03D18B42E6D197
:101160000020D3E702204042D0E701204042CDE7F3
:101170008B42E8D0DBE7C04630B5420044024D0266
:10118000C30F4800640A120E6D0A000EC90FFF2A31
:101190001AD0FF280ED0002A1ED100280ED1002D13
:1011A0002AD0002C0CD08B421DD0581E0223184090
:1011B000013810E0002D0DD1002A20D1002C1ED1C5
:1011C000002923D0080006E0002C03D1FF28ECD131
:1011D000002D17D0022030BD0028E6D08B42E4D18C
:1011E0008242E2DC04DBAC42DFD80020AC42F2D227
:1011F000002B0BD01800EEE7002CECD0D5E78B428B
:10120000D3D1F5E700208B42E5D0CEE70120404264
:10121000E1E7C046204842698023DB021343436173
:101220001E4B1968802212050A431A601968802231
:1012300092050A431A601968802212060A431A604E
:101240001968802252040A431A6099698022520167
:1012500011439961C3698021C9010B43C361104BDC
:10126000186801431960196818200143196019684A
:1012700014380143196059680A435A605A68024396
:101280005A605968E022D2000A435A601A68402125
:101290000A431A607047C04600100240000400482C
:1012A0000038004082B0002301934300181804E086
:1012B000C046C046019B01330193019B8342F7D393
:1012C00002B0704770B505000C00274A9169802371
:1012D0005B050B4393610120FFF7E4FF234B0622DC
:1012E0001A70234B9B68DB07FBD5214BDB681E4E36
:1012F000B26980235B011343B3611E48FFF7D2FF3D
:10130000B26980235B051343B3610120FFF7CAFF75
:10131000164B02221A70164B9B68DB07FBD5144B49
:10132000DB682B0A114A1370114B9B68DB07FBD556
:101330000F4BDB680D4B1D700D4B9B68DB07FBD51E
:101340000B4BDB68094B1C70094B9B68DB07FBD51B
:10135000074BDB68044A916980235B010B4393616F
:101360000448FFF79FFF70BD000400480C380040A0
:10137000003800408813000010B504001B4A916932
:1013800080235B050B4393610120FFF78BFF184B14
:1013900003221A70174B9B68DB07FBD5154BDB68E4
:1013A000230A134A1370134B9B68DB07FBD5114BC1
:1013B000DB680F4B1C700F4B9B68DB07FBD50D4B9D
:1013C000DB680B4B42221A700A4B9B68DB07FBD58C
:1013D000084BDC68E4B2054A916980235B010B434A
:1013E00093610548FFF75EFF200010BD0004004830
:1013F0000C3800400038004088130000F0B5C646A5
:1014000000B58CB00AAD08220021280001F05BFF76
:101410001822002104A801F056FF274B5A698021A9
:10142000C9030A435A615A690A400392039A5A69E6
:10143000802189020A435A615A690A400292029A3B
:101440005A698021C9020A435A615B690B400193C2
:10145000019B1A4F80239846BB62194A93680F215B
:101460008B4393609022D205D3680C398B430124BF
:101470002343D36013688B4313600A942C710026B6
:101480006E71AC71280000F0CBFC434604930594C8
:1014900006960796089604A9380000F01AFC002268
:1014A0000021052001F0B6F8052001F0B7F80CB0D6
:1014B00080BCB846F0BDC0460010024000040048A1
:1014C0000000014082B0430018180023019304E09B
:1014D000C046C046019B01330193019B8342F7D371
:1014E00002B0704770B51420FFF7ECFF0A4CA369F7
:1014F00080252D022B43A3611420FFF7E3FFA2698F
:1015000080231B061343A3611420FFF7DBFFA369AD
:101510001D43A56170BDC0460008004810B5040019
:10152000454A91698023DB010B43936143B2002B51
:1015300046DB9022D205916980231B060B43936101
:10154000630645D59022D205916980235B010B4348
:101550009361A30644D5394A916980239B000B43CC
:101560009361E30643D5354A916980235B000B43C1
:101570009361FFF7B7FF230740D59022D205916909
:1015800080231B020B43936163073FD59022D20552
:10159000916980235B010B439361A3073ED5274AE2
:1015A000916980239B000B439361E4073DD5234A57
:1015B000916980235B000B439361FFF793FF10BD9C
:1015C0009022D205916980231B020B439361B7E7F8
:1015D0009022D205916980235B050B439361B8E7A4
:1015E000164A916980239B040B439361B9E7134A20
:1015F000916980235B040B439361BAE79022D20583
:10160000916980231B060B439361BDE79022D205AD
:10161000916980235B050B439361BEE7074A91699B
:1016200080239B040B439361BFE7044A91698023A5
:101630005B040B439361C0E70008004800040048C6
:1016400070B50500002403E0FFF768FF0134E4B241
:10165000285D0028F8D170BD10B50400474A916993
:101660008023DB050B43936143B2002B49DB9022BF
:10167000D205916980231B060B439361630648D50D
:101680009022D205916980235B010B439361A306ED
:1016900047D53B4A916980239B000B439361E30646
:1016A00046D5374A916980235B000B439361FFF76E
:1016B00019FF230743D59022D205916980231B028D
:1016C0000B439361630742D59022D2059169802331
:1016D0005B010B439361A30741D5294A916980239C
:1016E0009B000B439361E40740D5254A9169802311
:1016F0005B000B439361FFF7F5FE2248FFF7E2FE24
:1017000010BD9022D205916980231B020B43936187
:10171000B4E79022D205916980235B050B43936166
:10172000B5E7174A916980239B040B439361B6E7A1
:10173000134A916980235B040B439361B7E79022BE
:10174000D205916980231B060B439361BAE790226F
:10175000D205916980235B050B439361BBE7084A7F
:10176000916980239B040B439361BCE7044A916910
:1017700080235B040B439361BDE7C046000800482B
:1017800000040048B80B000010B51B4B59698022BB
:1017900092020A435A6159698022D2020A435A616D
:1017A0005969802212030A435A619022D2051168B6
:1017B0008223DB050B431360104A1168A023DB0270
:1017C0000B4313600E4A1168A023DB050B43136023
:1017D0000C48FFF777FE3320FFF73EFF3220FFF77C
:1017E0003BFF0C20FFF738FF2820FFF735FF0120D3
:1017F000FFF732FF10BDC046001002400004004851
:10180000000800483075000010B5124B5B69DB071B
:1018100000D410BD012000F0DFFF00F0FBFA0E4BFA
:101820001B68C01AC728F4D900F0F4FA0A4B1860F4
:101830000A4B1B68D96AF422FF32914205D0F42288
:10184000FF32DA62054BDA60E3E7054ADA62034BFE
:10185000DA60DEE700040140340000208000002050
:10186000E703000010B5044801F0F4F880210348B4
:1018700000F0A8FF10BDC046800000200004004812
:1018800030B583B0047802250BE00A212000FEF772
:10189000C1FC01AB59550A212000FEF735FCC4B24A
:1018A000013D002DF1DA002400E0013401AB1B5DA5
:1018B000002BFAD006E001AB185D3030C0B2FFF764
:1018C0002DFE0134022CF6DD0248FFF7FBFD03B0CC
:1018D00030BDC046B80B000010B582B0164801F00C
:1018E000B9F80120FFF7B8FE0220FFF7B5FE134854
:1018F000FFF7A6FEC020FFF7AFFE114C20780130A5
:101900000621FEF787FCC8B22070FFF735FD6B4655
:10191000D8710C4B22789B5C984207D00A48FFF79D
:101920008FFE074B05221A7002B010BD6B46D81D02
:10193000FFF7A6FFF8E7C04638000020783300081C
:1019400000000020040000208833000870B5084C17
:10195000200000F055FC6421200000F0A3FC2000D2
:1019600000F004FD0500200000F07AFC280070BDA6
:101970001001002010B5FFF787FA0022054BFEF793
:1019800069FFFFF7A5FA0449FEF762FCFEF748FC81
:1019900010BDC04600FEAF40007F3B4710B5024877
:1019A00000F0EAFC10BDC0461001002072B6FEE750
:1019B00000B585B00C22002101A801F084FC21486B
:1019C000214B0360002343608360C36001220261F6
:1019D00004214161037643768376C376C221FF31C9
:1019E000C16103629E39FF394354826200F046FBB5
:1019F000002822D10623019380235B0102938023D8
:101A00005B0503930F4801A900F01EFD002816D1C5
:101A10000D4A916880231B060B4393600A4B9B6819
:101A2000002BFBDB084A936801210B439360064BB4
:101A30001B68DB07FBD505B000BDFFF7B7FFFFF75D
:101A4000B5FFC046100100200024014000B58FB052
:101A5000102200210AA801F036FC0822002108A863
:101A600001F031FC1C22002101A801F02CFC2048CF
:101A7000204B03600023436083601F4AC260036100
:101A8000836101F0E7F8002828D180235B010A93E5
:101A900017480AA901F0FCF9002821D1144801F0E7
:101AA00005F900281ED1002308930993104808A9BE
:101AB00001F0FEFA002817D160230193002302935E
:101AC000039305930A48082201A901F05DF9002853
:101AD0000CD1074801F0A0FB0FB000BDFFF766FF77
:101AE000FFF764FFFFF762FFFFF760FFFFF75EFF9E
:101AF000C8000020000400407FBB000010B50C4867
:101B00000C4B03600C4B4360002383600B4AC260A4
:101B1000036143618033836101F09CF8002804D1A4
:101B2000074B802292031A6010BDFFF73FFFC046AB
:101B300038000020004401403F1F0000E703000080
:101B400000E100E000B583B008220021684601F002
:101B5000BAFB1248124B0360124B436000238360B0
:101B6000F423FF33C360743BFF3B836101F072F8E1
:101B700000280ED10023009301930848694601F024
:101B800097FA002807D1084B802292021A6003B00E
:101B900000BDFFF70BFFFFF709FFC04680000020E4
:101BA000001000403F1F000000E100E010B5244A93
:101BB000136801218B431360214B1B68DB07FBD4A7
:101BC000204A136801210B4313601E4B1B689B07BF
:101BD000FBD51C4A1368F8218B4378390B431360FB
:101BE000536B7F390B435363164B5B6B9B07FBD5E2
:101BF000144B5A6BF8218A4378390A435A635A685E
:101C000070318A435A605A680F490A405A605A68CC
:101C100003218A435A600B4B5B680C221A42FAD1AB
:101C20000A4801F021FB032000F0B0F8002805D19C
:101C3000044A536B04218B43536310BDFFF7B6FE78
:101C40000020024000100240FFF8FFFF00127A005F
:101C500010B500F0C3F8FFF7A9FFFFF7DBFAFFF7B5
:101C6000CDFBFFF7A5FEFFF7F1FEFFF747FFFFF7FC
:101C700069FFFFF789FD0E4800F0B0FE0D4800F047
:101C8000ADFE0D48082101F095F9002406E00B4B4C
:101C9000195D2000FFF716FB0134A4B2052CF6D91C
:101CA000FFF754FEFFF766FE034B1B68D863F7E7A8
:101CB0008000002038000020C80000200400002020
:101CC000FEE7FEE77047704710B500F097F810BDCB
:101CD0007047F0B5002216E00B699C46C4682B00E3
:101CE0006B435E00F618F743B44366465E433443E5
:101CF000C4604C68022C26D04D6804683C406B439D
:101D00002343036001320C682300D3403BD00123FE
:101D1000934025001D401C42F4D04B68013B012B31
:101D2000DAD88F6883682C006C4366003619B34399
:101D30007C43234383600E68CC684368B343744399
:101D400023434360C8E7FF2D0DD84C69A446066ABB
:101D50001C006C436C4325012D1BAE4365466C4350
:101D600034430462C8E74C69A446466A2D0A2C0035
:101D70006C436C436C4325012D1BAE4365466C439D
:101D800034434462B8E70020F0BD000010B5040001
:101D90000F4B1978FA208000FEF7B6F901000D4BC1
:101DA0001868FEF7B1F900F045FC00280DD1032CAE
:101DB00001D901200AE0013000222100404200F058
:101DC00029FC054B1C60002000E0012010BDC0462E
:101DD000100000200C0000201400002010B5064A5E
:101DE000136810210B4313600320FFF7CFFF01F0AE
:101DF00097F9002010BDC04600200240034A116838
:101E0000034B1B785B1813607047C04650010020DD
:101E100010000020014B18687047C0465001002098
:101E200010B503000079002850D01A68002A57D056
:101E30005879012818D0022820D000280BD0012082
:101E40009A79002A4BD0022A2CD0032A34D0012AB6
:101E50001ED0012043E023494C6894434C601A682B
:101E60000C6822430A60EBE71E490868904308604B
:101E70001A68486802434A600020E1E71949086887
:101E800002430A601A68486802434A600020D7E7A4
:101E90001C68144AD168A143D1601B6891680B4348
:101EA00093601CE01C680F4A9168A14391601B6815
:101EB000D1680B43D36012E019680A4A9468214341
:101EC00091601B68D1680B43D36008E01C68054A29
:101ED0001168A1431160196853688B43536010BDAA
:101EE0000020FCE70004014070B50400026893681C
:101EF0005B0725D593685B0706D593689B0703D4DA
:101F0000936810210B439360FFF784FF050023685B
:101F10009B685B0712D5FFF77DFF401B0228F6D9AF
:101F200023689B685B07F2D5A36B10221343A3635E
:101F3000E36B0F3A1343E363012002E0002000E06B
:101F4000002070BD70B504000268916803230B4047
:101F5000012B01D0002070BD1368DB0702D4D368C9
:101F60001B0431D5916805230B40012B09D0A36BCD
:101F700010221343A363E36B0F3A1343E36301207F
:101F8000E9E7936802210B439360236803221A60F8
:101F9000FFF740FF050023689B68DB0712D5FFF7BA
:101FA00039FF401B0228F6D923689B68DB07F2D56E
:101FB000A36B10221343A363E36B0F3A1343E36352
:101FC0000120C8E70020C6E70020C4E730B583B091
:101FD0000400002301930368996803220A40012A40
:101FE00014D09968224A114218D19A6801210A43F3
:101FF0009A60204B18682049FEF786F80190019BF3
:10200000002B15D0019B013B0193F8E71A68D2071A
:102010002BD4DA681204E4D5002024E0A36B10224C
:102020001343A363E36B0F3A1343E36301201AE006
:10203000FFF7F0FE050023681B68DB0712D4FFF7EB
:10204000E9FE401B0228F6D923681B68DB07F2D49F
:10205000A36B10221343A363E36B0F3A1343E363B1
:10206000012000E0002003B030BD0020FBE7C046A7
:10207000170000800C00002040420F0070B5041EC5
:1020800000D1B4E0836B002B00D180E0A36BDB06B2
:1020900000D5A6E023689A68042108001040114288
:1020A00000D09EE0A26B53490A400631FF310A433B
:1020B000A263996803220A40012A6ED0DA681821C7
:1020C0008A43A1680A43DA60226813699B009B086F
:1020D00061680B4313612268D36847490B40D360A2
:1020E000237E9B03627ED2031343A17E4A031343E4
:1020F000A26A012A58D0802252011343E268134396
:102100002269022A52D003432422A25C52001343C4
:10211000E27E012A4CD0E269C221FF318A4202D01C
:10212000216A0A4313432168CA681A43CA60E26AF3
:10213000802149058A420DD0012A0BD0022A09D0FC
:10214000032A07D0042A05D0052A03D0062A01D085
:10215000072A0AD12068416907229143416120681A
:102160004169E56A2A400A4342612268D2682349EC
:102170000A409A422BD0A36B12229343023A134394
:10218000A363E36B0F3A1343E36301202EE0C363C1
:102190003422835400F0DCFF78E71A68D2079AD41F
:1021A000DA68120497D489E70200A6E70420AAE7B8
:1021B000002903D1802252021343ACE7A26B2021F5
:1021C0000A43A263E26B1F390A43E263A3E70023D9
:1021D000E363A36B03229343023A1343A3630020F8
:1021E00004E0A36B10221343A363012070BD012000
:1021F000FCE7C046FDFEFFFF1902FEFFE7FF3F833D
:1022000010B5040003689B685B0723D43423C35CC8
:10221000012B21D034230122C254437E012B14D13F
:102220000020A26B0D4B1A4080235B001343A36375
:102230000023E3633422A3542368183A1A60226807
:10224000936804210B43936010BDFFF7BFFE002885
:10225000FAD1E6E70220F7E70220F5E7FEF0FFFFFC
:1022600010B504003423C35C012B17D034230122A2
:10227000C254FFF739FE002803D034230022E25471
:1022800010BD2000FFF75EFE0028F6D1A36B044AC4
:1022900013400432FF321343A363EEE70220EFE75B
:1022A000FEFEFFFFF8B504000E004769082F04D0BA
:1022B0000368DB68DB0718D40C27FFF7ABFD0500CC
:1022C00023681A6817421FD1731CF9D0002E15D14C
:1022D00023681B681F42F3D1A36B04221343A3633B
:1022E00034230022E254032032E0836B2022134384
:1022F000836334230022C254012029E0FFF78AFDC2
:10230000401BB042DCD9E3E7A16B802292000A4374
:10231000A263D968C0221201114213D1A27E002A01
:1023200010D11A6812070DD59A68520711D45A684D
:102330000C218A435A60A36B0B4A13400432FF32CC
:102340001343A363207E00280CD123680C221A605B
:10235000F8BDA36B20221343A363E36B1F3A13431F
:10236000E363EFE70020F3E7FEFEFFFF0368186C6E
:10237000704770477047704770B5040003681D6868
:102380005E686A0701D5720703D42A0727D532078A
:1023900025D5A26BD20604D4A16B802292000A43F9
:1023A000A263D968C0221201114212D1A27E002A72
:1023B0000FD12A070DD59A6852072DD45A680C21DF
:1023C0008A435A60A36B1F4A13400432FF321343FF
:1023D000A3632000FFF7CDFF23680C221A602B06B1
:1023E00001D5330621D4ED0615D5F60613D5A36A1B
:1023F000012B03D02368DB68DB0709D5E36B0222DE
:102400001343E36323680E321A602000FFF7B3FF23
:10241000236810221A6070BDA36B20221343A363AC
:10242000E36B1F3A1343E363D3E7A26B80235B02A2
:102430001343A3632000FFF79DFF236880221A60E7
:10244000D1E7C046FEFEFFFF30B583B00400002395
:1024500001933433C35C012B00D17FE0342301228C
:10246000C254026893685B076AD448683C4B984240
:102470004BD0936A0D680120A84003439362E36A3E
:1024800080225205934213D0013B062B10D9886855
:102490002268556907232B40984209D050690723C9
:1024A00098435061206842698D682B401343436113
:1024B0000B681A00103A022A4CD82A4A1268102BCC
:1024C0000ED0112B09D080235B041343254A1360DF
:1024D0000B68102B07D0002037E08023DB03F4E7E4
:1024E00080231B04F1E7204B18682049FDF70CFE00
:1024F00083001B185B00019302E0019B013B0193E9
:10250000019B002BF9D100201FE0936A0D68012088
:10251000A840834393620B681A00103A022A1BD822
:10252000104A1268102B09D0112B05D0104B134004
:102530000C4A1360002008E00E4BF8E70E4BF6E75C
:10254000836B202213438363012034230022E2544F
:1025500003B030BD0020F8E70020F6E70220F7E7DF
:1025600001100000082701400C00002040420F002D
:10257000FFFFFFFEFFFFBFFFFFFF7FFF70B50028DB
:1025800011DB8308134DC0339B005C5903221040BC
:10259000C000FC3216008640B44389010A408240E4
:1025A00022435A5170BD0F230340083B9B0806335A
:1025B0009B00094A944663445C6803221040C000B3
:1025C000FC3215008540AC4389010A408240224319
:1025D0005A60E7E700E100E000ED00E00138802309
:1025E0005B0498420FD2094A50600948036A1B02F3
:1025F0001B0AC02109060B430362002393600733C3
:102600001360002070470120FCE7C04610E000E0A6
:1026100000ED00E010B5FFF7B1FF10BD002805DBAD
:102620001F22024001239340014A13607047C046B5
:1026300000E100E010B5FFF7D1FF10BDF0B583B0A9
:10264000002356E086685F000324BC40A643CC68A4
:10265000BC4034438460446894434E683609012288
:1026600032409A402243426053E0DE080836B6000A
:10267000375805321A4092000F249440A7430C6942
:10268000944022003A43325056E0032600E00026F0
:10269000A64034003C4302329200444E9451444AD6
:1026A0009768EA433E00AE434C68E40201D53E0021
:1026B0002E433F4CA660E7683E0016404C68A402DB
:1026C00001D53E002E433A4CE66067683E00164056
:1026D0004C68A40301D53E002E43354C6660266845
:1026E00032404C68E40301D52A003243304C22606A
:1026F00001330C682200DA4056D001229A402500AE
:1027000015401442F4D04E6803243440013C012C9F
:1027100098D94C6803222240032A08D0C4685E007E
:102720000322B24094438A68B2402243C2604C689C
:1027300003222240022A98D004685E000322170078
:10274000B740BC434F683A40B240224302604C68F5
:10275000C02292021442CBD0164CA6690122164325
:10276000A661A46922400192019A9A08941CA400CF
:102770000E4EA75903241C40A4000F26A640B743C1
:102780009026F605B04282D00B4EB04208D00B4ED8
:10279000B04207D00A4EB04200D176E7052677E76F
:1027A000012675E7022673E703B0F0BD0000014083
:1027B00000040140001002400004004800080048E6
:1027C000000C0048426913000B401B0491430B436B
:1027D000836170477047000010B5054B5B69184274
:1027E00000D110BD024B5861FFF7F4FFF9E7C04676
:1027F0000004014030B5036A012293430362056A75
:10280000426883697324A3430C681C4302239D43DD
:102810008B682B43154DA84208D0154DA84205D012
:10282000144DA84202D0144DA84206D10825AB434E
:102830001D00CB682B430425AB430C4DA84208D0A8
:102840000B4DA84205D00B4DA84202D00A4DA8421C
:1028500005D10A4D2A404D6915438A692A434260D1
:1028600084614A684263036230BDC046002C014067
:10287000004001400044014000480140FFFCFFFFD0
:1028800030B5036A184A13400362046A4268C36998
:102890007325AB430D681D43144B1C408B681B0212
:1028A0002343134CA04209D0124CA0420DD0124C2D
:1028B000A0420AD0114CA0420FD106E0104C1C409F
:1028C000CB681B0223430F4C23400F4C22404C6922
:1028D000240114438A69120122434260C5614A6897
:1028E000C263036230BDC046FFFEFFFFFFFDFFFF76
:1028F000002C0140004001400044014000480140DC
:10290000FFF7FFFFFFFBFFFFFFCFFFFF30B5036ABD
:10291000134A13400362046A4368C269114D2A4096
:102920000D682D021543104A14408A681203224391
:102930000E4CA04208D00E4CA04205D00D4CA04237
:1029400002D00D4CA04204D10C4C1C404B699B01A1
:1029500023434360C5614B680364026230BDC046D7
:10296000FFEFFFFFFF8CFFFFFFDFFFFF002C0140A9
:10297000004001400044014000480140FFBFFFFF0C
:1029800030B5036A046A0125AC4304628469EF35FB
:10299000AC43120122430A24A3430B438261036226
:1029A00030BD000030B5036A1024A343036284697C
:1029B000036A054D2C4012032243A024A3430901BE
:1029C00019438261016230BDFF0FFFFF83687022EF
:1029D00093430B43693A1343836070473D23C35CC1
:1029E000012B26D13C330222C2540268D368012154
:1029F0000B43D3600368114A93420FD08022D20563
:102A000093420BD00E4A934208D00E4A934205D00F
:102A10001A6801210A431A6000200BE09968072216
:102A20000A40062A07D01A6801210A431A600020CA
:102A300000E0012070470020FCE7C046002C014068
:102A400000040040004001407047704770477047E5
:102A50007047704710B50400026813699B070FD5D3
:102A6000D3689B070CD503235B42136104330377C0
:102A700003689B699B0763D0FFF7E9FF0023237777
:102A8000226813695B0712D5D3685B070FD505234E
:102A90005B4213610733237723689A69C0239B0045
:102AA0001A4253D02000FFF7D2FF00232377226879
:102AB00013691B0710D5D3681B070DD509235B428B
:102AC00013610D3323772368DB699B0745D0200012
:102AD000FFF7BDFF0023237722681369DB0612D5B9
:102AE000D368DB060FD511235B42136119332377BB
:102AF0002368DA69C0239B001A4235D02000FFF713
:102B0000A6FF0023237722681369DB0702D5D36869
:102B1000DB0730D4226813691B0602D5D3681B0675
:102B200030D4226813695B0602D5D3685B0630D4C3
:102B3000226813699B0602D5D3689B0630D410BD6A
:102B4000FFF784FF2000FFF783FF97E72000FFF7E0
:102B50007DFF2000FFF77CFFA7E72000FFF776FF4F
:102B60002000FFF775FFB5E72000FFF76FFF20009B
:102B7000FFF76EFFC5E702235B4213612000FFF7FA
:102B800064FFC7E781235B421361200000F0C7FAAE
:102B9000C7E741235B4213612000FFF75AFFC7E7F5
:102BA00021235B421361200000F0B8FAC7E7000060
:102BB0000368214A904206D08022D205904202D07A
:102BC0001E4A904203D1702293434A6813431A4A23
:102BD000904212D08022D20590420ED0174A9042E5
:102BE0000BD0174A904208D0164A904205D0164A98
:102BF000904202D0154A904203D1154A1A40CB6840
:102C00001343802293434A69134303608B68C36272
:102C10000B688362084B984208D00A4B984205D053
:102C2000094B984202D0094B984201D10B690363CA
:102C3000012343617047C046002C0140000400405E
:102C40000020004000400140004401400048014095
:102C5000FFFCFFFF70B5041E26D03D23C35C002B94
:102C60001CD03D2502236355210001C9FFF7A0FFB9
:102C700001234622A354083AA3540132A35401323B
:102C8000A3540132A3540132A3540132A35401329C
:102C9000A3540132A3546355002070BD3C3300227D
:102CA000C25400F085FADCE70120F6E770B5041E97
:102CB00026D03D23C35C002B1CD03D250223635549
:102CC000210001C9FFF774FF01234622A354083AEB
:102CD000A3540132A3540132A3540132A35401324C
:102CE000A3540132A3540132A3540132A3546355B7
:102CF000002070BD3C330022C254FFF7A5FEDCE784
:102D00000120F6E770B5036A102293430362026A5A
:102D100044688369164D2B400D682D021D43202306
:102D20009A438B681B011343124A904209D0124AFE
:102D300090420ED0114A90420BD0114A904210D1CD
:102D400007E0802293431E00CB681B013343403AC7
:102D500093430C4A14404A69920022438C69A400B0
:102D60001443446085614A688263036270BDC04653
:102D7000FF8CFFFF002C0140004001400044014057
:102D800000480140FFF3FFFF70B504000D003C2335
:102D9000C35C012B00D16AE03C230121C154082A05
:102DA00050D01CD8002A38D0042A16D10068290037
:102DB000FFF7A8FF2268916980231B010B439361F1
:102DC000226893692B490B40936121688B692A69BA
:102DD000120213438B6100201BE0080019E00C2A4B
:102DE00016D100682900FFF791FD2268D169802380
:102DF0001B010B43D3612268D3691E490B40D36189
:102E00002168CB692A6912021343CB61002000E0DC
:102E100001203C230022E25470BD00682900FFF726
:102E2000E9FC2268936908210B4393612268936946
:102E300004398B4393612268936929690B43936139
:102E40000020E6E700682900FFF71AFD2268D36931
:102E500008210B43D3612268D36904398B43D361C2
:102E60002268D36929690B43D3610020D1E702208E
:102E7000D2E7C046FFFBFFFF30B58468034D2C400E
:102E80001B0213430B432343836030BDFF00FFFF4E
:102E900010B5040008003C23E35C012B00D177E06F
:102EA0003C230122E25401330132E2542268936848
:102EB00038490B409360016860294FD029D84029D8
:102EC00057D00CD9502922D14168C2682068FFF739
:102ED00057FD20685021FFF779FD002005E02029EB
:102EE0000ED009D930290BD001203D230122E25414
:102EF000013B0022E25410BD002901D0102904D169
:102F00002068FFF763FD0020EFE70120EDE70120D7
:102F1000EBE780225201914236D080229201914209
:102F20000DD181684268C3682068FFF7A5FF226859
:102F300091688023DB010B4393600020D5E7702963
:102F400024D181684268C3682068FFF795FF226832
:102F5000936877210B4393600020C6E74168C268FD
:102F60002068FFF71FFD20686021FFF72FFD00207C
:102F7000BBE74168C2682068FFF702FD2068402176
:102F8000FFF724FD0020B0E70020AEE70120ACE70A
:102F90000220B0E78800FFFF10B51F23194001246D
:102FA0008C40036AA3430362036A8A4013430362AB
:102FB00010BD000010B50400002936D13E23C35CCB
:102FC000013B5A1E9341DBB2002B62D1002945D14F
:102FD0003E330222E25420680122FFF7DDFF23681E
:102FE0002E4A934208D02E4A934205D02D4A93424E
:102FF00002D02D4A934204D1596C802212020A4316
:103000005A642368254A934238D08022D2059342DD
:1030100034D0264A934231D0214A93422ED01A68A6
:1030200001210A431A60002034E0042908D008294D
:103030000DD04123C35C013B5A1E9341DBB2C3E771
:103040003F23C35C013B5A1E9341DBB2BCE74023E4
:10305000C35C013B5A1E9341DBB2B5E7042905D09E
:10306000082907D041230222E254B4E73F23022279
:10307000E254B0E740230222E254ACE79968072209
:103080000A40062A07D01A6801210A431A60002064
:1030900000E0012010BD0020FCE7C046002C0140EC
:1030A000004001400044014000480140000400404D
:1030B00030B53C23C35C012B28D03C230122C254F1
:1030C00001330132C25403685C689D686E329443D8
:1030D0000A6822435A6003680D4A934209D080224D
:1030E000D205934205D00B4A934202D00A4A93423A
:1030F00004D1802295434A682A439A603D230122E5
:10310000C254013B0022C254002030BD0220FCE723
:10311000002C01400004004000400140704770470F
:1031200082B00A4B996901221143996199690A4059
:103130000092009ADA69802149050A43DA61DB6965
:103140000B400193019B02B07047C0460010024043
:1031500010B588B004001422002103A800F0B3F8D1
:103160002268114B9A4201D008B010BD0F4B9A69EA
:10317000802189000A439A619A690A400192019A62
:103180005A69802189020A435A615B690B400293A4
:10319000029B402303933D3B0493902003A9C00569
:1031A000FFF74CFAE0E7C04600240140001002405F
:1031B00084B00368144A934207D0144A93420ED055
:1031C000134A934215D004B07047124AD1690223C2
:1031D0001943D161D26913400193019BF3E70D4A72
:1031E000D16910231943D161D26913400293029B24
:1031F000E9E7084B9A69802189020A439A619B6931
:103200000B400393039BDEE70004004000100040E6
:10321000004401400010024010B586B004001422A2
:10322000002101A800F04FF822680C4B9A4201D00F
:1032300006B010BD0A4B5A698021C9020A435A617F
:103240005B690B400093009B0123019302220292D1
:10325000059301A90348FFF7F1F9E9E700040040ED
:103260000010024000040048014B18607047C0463F
:103270000C0000200D488546FEF72AFD0C480D493C
:103280000D4A002302E0D458C4500433C4188C42C1
:10329000F9D30A4A0A4C002301E013600432A24227
:1032A000FBD300F019F8FEF7D3FCFEE70020002066
:1032B00000000020180000209C33000818000020A7
:1032C00054010020FEE703008218934200D17047AA
:1032D00019700133F9E7000070B500260C4C0D4D54
:1032E000641BA410A64209D1002600F019F80A4C6C
:1032F0000A4D641BA410A64205D170BDB300EB5863
:1033000098470136EEE7B300EB5898470136F2E7ED
:10331000943300089433000898330008943300086D
:10332000F8B5C046F8BC08BC9E467047F8B5C04624
:08333000F8BC08BC9E46704782
:103338003C0900082E0900080C0900083809000893
:103348000C090008220C00080C09000838090008BC
:103358002E0900082E090008220C00083809000868
:10336800F4080008F4080008F4080008940C0008A1
:10337800454550524F4D20627974653A000000006F
:0C338800535049204552524F52000000A3
:04339400E900000844
:04339800C100000868
:10339C0005000000AA55CC33F00F000000127A0093
:0833AC00010000000400000014
:040000050800327548
:00000001FF
